:100000000C945E010C9486010C9486010C9486017C
:100010000C9486010C9486010C9486010C94860144
:100020000C9486010C9486010C941D060C94860198
:100030000C9486010C9486010C9486010C94860124
:100040000C9486010C9486010C9486010C94860114
:100050000C9486010C9486010C9486010C942B0D53
:100060000C9486010C9486010C9486010C948601F4
:100070000C9486010C9486010C9486010C948601E4
:100080000C94120B0C9486010C9486010C9486013E
:100090000C94750D0C9486010C9486010C948601C9
:1000A0000C9486010C9486010C948601DD04E20414
:1000B000E704F104FB0445054505450505050F0565
:1000C00019052305300545053805710898084A0AC1
:1000D00098084A0AE00804094A0ADB09EF09C00A3D
:1000E000C30AB20AB60ABC0AE40AE40AE40AC70A66
:1000F000CB0ACF0AD50AD90AE40ADF0A084AD73B55
:100100003BCE016E84BCBFFDC12F3D6C74319ABDE6
:1001100056833DDA3D00C77F11BED9E4BB4C3E910A
:100120006BAAAABE000000803F08000000BE922417
:1001300049123EABAAAA2ABECDCCCC4C3E00000050
:1001400080BEABAAAAAA3E00000000BF000000804B
:100150003F0000000000084178D3BB4387D1133D26
:10016000190E3CC3BD4282AD2B3E68EC8276BED9EF
:100170008FE1A93E4C80EFFFBE01C4FF7F3F00002E
:10018000000000000600FF0901A101090215002579
:10019000FF7508950A81020903150025FF7508956A
:1001A0000A9102C009022200010100C032090400C4
:1001B00000010300000009211101000122200007B5
:1001C0000581030800051201100100000008EB037F
:1001D0004F200100010200012C034C005500460095
:1001E00041002000470065006E0065007200690054
:1001F00063002000480049004400200044006500DE
:100200006D006F00000018034400650061006E007F
:100210002000430061006D00650072006100000075
:100220000403090403070605040100080A0B0C0D6A
:10023000090000000200090F0000030401000C0087
:1002400000000000000000000000000000000000AE
:1002500000000000240027002A002D0030000000CC
:100260000000250028002B002E00310000000000B7
:100270002300260029002C002F000404040404039A
:100280000405020202020403020202020606060636
:10029000060604040202020404040802011040805D
:1002A000401020408040800802040180402010025D
:1002B000011080102040402034182C1811241FBE3B
:1002C000CFEFDAE0DEBFCDBF11E0A0E0B1E0EAE7BA
:1002D000FDE302C005900D92AC34B107D9F723E0DD
:1002E000ACE4B1E001C01D92AE3CB207E1F711E011
:1002F000CDE5D1E004C02197FE010E94451DCC351B
:10030000D107C9F70E9402130C94B01E0C94000090
:10031000089580E090E0089508952091570130916C
:1003200058012617370748F06115710539F42091F7
:10033000E8002E772093E80001C0B90140E0611584
:100340007105A9F120917A01222309F443C02530D7
:1003500009F442C02091E80023FD40C02091E8004C
:1003600022FD32C02091E80020FFE9CF4091F30048
:100370002091F20030E0342BFC01CF0161157105B2
:1003800059F02830310540F481918093F10061509B
:1003900071092F5F3F4FF1CF41E02830310509F05F
:1003A00040E02091E8002E772093E800C8CF41116B
:1003B000C9CF0AC080917A01882361F0853061F04D
:1003C0008091E80083FD0AC08091E80082FFF2CFAF
:1003D00080E0089582E0089583E0089581E0089523
:1003E0008091510187FF11C08091E80082FD05C016
:1003F00080917A018111F8CF11C08091E8008B774C
:100400000BC080917A01882349F08091E80080FF39
:10041000F8CF8091E8008E778093E80008950C94DF
:10042000E71D2F923F924F925F926F927F928F9231
:100430009F92AF92BF92CF92DF92EF92FF920F9373
:100440001F93CF93DF93EC0188818038D1F58981A8
:100450008336A9F400E010E02C814B816A81809101
:100460007402909175020817190718F4C8010E94C8
:10047000C1120F5F1F4F0A30110571F70EC02C819A
:100480004B816A8190E00197E0917402F0917502CE
:100490008E179F0710F40E94C112DF91CF911F9118
:1004A0000F91FF90EF90DF90CF90BF90AF909F9013
:1004B0008F907F906F905F904F903F902F900C9413
:1004C0009F118138E9F48981833669F4409176027D
:1004D0005091770260E070E080917A0290917B0207
:1004E0000E949A1EDACF90E0019720917402309119
:1004F00075028217930788F620E040E060E0CBCFDA
:10050000823809F036C299810A818B81CC81209191
:100510000001253021F02F3F09F010C304C0E4E2B0
:10052000F2E014919CC025E020930001E4E2F2E0A7
:10053000E491EF3F09F402C3E13009F449C0FCF44F
:10054000E1118CC014BC15BC24B5226024BD25B5B6
:10055000216025BDEFE7F2E0E491F0E0EE0FFF1F30
:10056000E25AFD4F2591349130936101209360014F
:10057000EEE9F2E0E491E0935F0110E072C0E33055
:1005800009F449C0E43009F069C01092C00010922B
:10059000C1002091C10028602093C1002091C100BA
:1005A00021602093C100EFE7F2E0E491F0E0EE0F6C
:1005B000FF1FE25AFD4F2591349130935B01209348
:1005C0005A01EEE9F2E0E491E093590114E049C0E8
:1005D0001092800010928100209181002860209369
:1005E000810020918100216020938100EFE7F2E0FB
:1005F000E491F0E0EE0FFF1FE25AFD4F2591349198
:1006000030935E0120935D01EEE9F2E0E491E09326
:100610005C0111E026C01092900010929100209190
:1006200091002860209391002091910021602093F7
:100630009100EFE7F2E0E491F0E0EE0FFF1FE25AE5
:10064000FD4F2591349130936F0120936E01EEE9B7
:10065000F2E0E491E093700113E003C01E2F17FD58
:100660006DC2202F30E01901392AD0E0D82B61E08B
:1006700085E00E94D00B4101A12CB12C812F8D7FF0
:1006800009F0C7C060E079E08DE390E0A501940136
:100690000E94811929013A0169017A0121E0C21AF7
:1006A000D108E108F1088FEFC816D104E104F10484
:1006B00009F008F44AC060E271EA87E090E0A50121
:1006C00094010E94811969017A0181E0C81AD10858
:1006D000E108F1081230F9F42FEFC216D104E10459
:1006E000F10409F008F4E6C068E478EE81E090E0F7
:1006F000A50194010E94811969017A0181E0C81A5B
:10070000D108E108F1082FEFC216D104E104F10489
:1007100009F010F5CFC08FEFC816D104E104F10441
:10072000B1F0A8F064E274EF80E090E0A5019401DC
:100730000E94811969017A0181E0C81AD108E10893
:10074000F108112309F4C8C1BDC181E001C082E0F4
:10075000112309F459C0AEC064E274EF80E090E068
:10076000A50194010E94811969017A0181E0C81AEA
:10077000D108E108F1082FEFC216D104E104F10419
:1007800009F008F497C062E17AE780E090E0A50103
:1007900094010E94811969017A0181E0C81AD10887
:1007A000E108F1082FEFC216D104E104F10409F0C9
:1007B00008F480C069E07DE380E090E0A501940149
:1007C0000E94811969017A0181E0C81AD108E10803
:1007D000F1082FEFC216D104E104F10409F008F486
:1007E0006FC1D301C2015AE0B595A795979587953A
:1007F0005A95D1F76C017D0121E0C21AD108E108B8
:10080000F108111157C085E095B5987F892B85BDFA
:1008100051C060E079E08DE390E0A50194010E9471
:10082000811969017A0181E0C81AD108E108F1084B
:10083000C114D10421E0E206F10488F064E274EF0F
:1008400080E090E0A50194010E94811969017A017C
:1008500081E0C81AD108E108F10883E001C081E015
:10086000113061F490918100987F892B80938100F1
:10087000209711F52FEF3FEFA90147C0133061F426
:1008800090919100987F892B809391002097A1F4FB
:100890002FEF3FEFA9014BC0143061F49091C100DC
:1008A000987F892B8093C100209731F42FEF3FEF81
:1008B000A9014FC0209769F09101220F331FDE017B
:1008C0000E94C21928EE33E040E050E00E94A019D7
:1008D00003C02FEF3FEFA9011130B9F08CF41111D3
:1008E0002DC1C7BC20936A0130936B0140936C010A
:1008F00050936D0180916E00826080936E001EC1E6
:100900001330A9F0143029F119C1D0928900C09296
:1009100088002093660130936701409368015093EB
:10092000690180916F00826080936F0007C1D0924F
:100930009900C09298002093710130937201409306
:1009400073015093740180917100826080937100F3
:10095000F5C0C092CF0020936201309363014093B1
:1009600064015093650180917200806480937200ED
:10097000E5C0833809F0E2C0FA800F2D10E0C9818C
:1009800061E08C2F0E94D00B0115110509F480C085
:100990000F3F110509F47EC0EC2FF0E0EF5CFD4F36
:1009A000E4914E2F50E0FA013197EF30F10508F055
:1009B0006CC0EA5AFF4F0C94451D84B5806884BD15
:1009C000F7BCBCC084B5806284BDF8BCB7C0809160
:1009D00080008068809380001093890000938800D5
:1009E000ADC08091800080628093800010938B0066
:1009F00000938A00A3C0809180008860809380006B
:100A000010938D0000938C0099C0809190008068B5
:100A10008093900010939900009398008FC080916C
:100A2000900080628093900010939B0000939A0046
:100A300085C08091900088608093900010939D0005
:100A400000939C007BC08091C00080688093C000B0
:100A50008091C0008F7B8093C000F092CF006EC069
:100A60008091C00080628093C000F092D00066C088
:100A70008091C20088608093C2008091C2008B7F09
:100A80008093C200F092D20059C00038110514F4CE
:100A900060E001C061E08C2FDF91CF911F910F9139
:100AA000FF90EF90DF90CF90BF90AF909F908F908E
:100AB0007F906F905F904F903F902F900C94A00B81
:100AC00086E046CE8FEFC816D104E104F10411F0A0
:100AD00008F070CE84E03CCE8FEFC816D104E1045C
:100AE000F104C9F0C0F069E07DE380E090E0A50189
:100AF00094010E94811969017A0181E0C81AD10824
:100B0000E108F1082FEFC216D104E104F10409F065
:100B100020F484E079CE83E077CED301C2012AE0CD
:100B2000B595A795979587952A95D1F76C017D0185
:100B300021E0C21AD108E108F10865CEDF91CF911A
:100B40001F910F91FF90EF90DF90CF90BF90AF90EB
:100B50009F908F907F906F905F904F903F902F90DD
:100B6000089508958CBD9DBD089508952091E400D9
:100B70003091E50095E64091EC00842F817040FFB4
:100B800022C08091E80080FD1CC080917A018823FA
:100B900091F0853091F08091EB0085FD10C040917F
:100BA000E4005091E5004217530729F39A01915050
:100BB00011F784E0089582E0089583E0089581E0CC
:100BC000089580E008954091E80042FFDECF089547
:100BD000982F973058F59093E900981739F0709155
:100BE000EC002091ED005091F00003C0242F762FEF
:100BF00050E021FF19C03091EB003E7F3093EB00B5
:100C00003091ED003D7F3093ED003091EB0031608D
:100C10003093EB007093EC002093ED005093F000C4
:100C20002091EE0027FF07C09F5FD3CF8F70809386
:100C3000E90081E0089580E008951F920F920FB6B9
:100C40000F9211242F933F934F935F936F937F9352
:100C50008F939F93AF93BF93EF93FF938091E100A6
:100C600082FF14C08091E20082FF10C08091E100F9
:100C70008B7F8093E10080910F019091100100978C
:100C800029F001979093100180930F018091DA0071
:100C900080FF19C08091D80080FF15C08091DA00D4
:100CA0008E7F8093DA008091D90019BC80FF09C043
:100CB00082E089BD09B400FEFDCF81E080937A0116
:100CC00002C010927A018091E10080FF17C08091EC
:100CD000E20080FF13C08091E2008E7F8093E200EB
:100CE0008091E20080618093E2008091D800806270
:100CF0008093D80019BC85E080937A018091E1004F
:100D000084FF2DC08091E20084FF29C019BC82E0DD
:100D100089BD09B400FEFDCF8091D8008F7D8093FE
:100D2000D8008091E1008F7E8093E1008091E20005
:100D30008F7E8093E2008091E20081608093E200E8
:100D400080917901882311F084E007C08091E3004D
:100D500087FD02C081E001C083E080937A01809129
:100D6000E10083FF22C08091E20083FF1EC08091DA
:100D7000E100877F8093E10082E080937A01109206
:100D800079018091E1008E7F8093E1008091E20003
:100D90008E7F8093E2008091E20080618093E20088
:100DA00042E060E080E00E94E805FF91EF91BF9192
:100DB000AF919F918F917F916F915F914F913F91F3
:100DC0002F910F900FBE0F901F901895AF92BF926A
:100DD000CF92DF92EF92FF920F931F93CF93DF9307
:100DE000CDB7DEB7AA970FB6F894DEBF0FBECDBF62
:100DF0000DB71EB780917A01882309F468C38091EA
:100E0000E9008F702091EC00922F917020FD90E806
:100E1000F92EF82A1092E9008091E80083FF48C378
:100E2000E1E5F1E088E08E0F9091F10091938E134F
:100E3000FBCF8091E80083FF41C18091010190E0E8
:100E400020915501309156012817390709F036C114
:100E500080915201833009F4D3C030F4813071F0B5
:100E6000823009F40DC12AC18A3009F4EFC08B30F9
:100E700009F4D7C0893009F021C153C080915101D4
:100E8000813A09F01BC1ADB6BEB6E0905301409166
:100E9000090150E08DB79EB7841B950B0FB6F894EF
:100EA0009EBF0FBE8DBFADB7BEB711966D0160E09E
:100EB00070E0CD010E949A1ED60180E090E0E091A2
:100EC0007B01F0917C01E80FF91F20812D930196A1
:100ED0008A309105A1F78091070190910801009750
:100EE00031F04091090150E0B6010E94911E10922C
:100EF000E9008091E800877F8093E800E110E092AC
:100F0000F1006AE070E0C6010E948D018091E80066
:100F10008B778093E8000FB6F894BEBE0FBEADBECF
:100F2000CDC080915101813209F0C8C0CDB6DEB686
:100F30002091570130915801A09153014DB75EB7F0
:100F4000421B530B0FB6F8945EBF0FBE4DBF6DB77B
:100F50007EB76F5F7F4F8091E800877F8093E800C6
:100F60002115310529F48091E8008B778093E80002
:100F7000FB012115310541F180917A01882341F16E
:100F8000853031F18091E80083FD22C08091E80036
:100F900082FFEFCF8091F3004091F20050E0582B98
:100FA000452B31F08091F10081932150310991F767
:100FB0009091E8009B779093E800DBCF80917A01D5
:100FC000882331F0853021F08091E80080FFF6CF52
:100FD0009091E8009E779093E80081E090E0A11165
:100FE00002C080E090E0E0917501F0917601860FFB
:100FF000971F09950FB6F894DEBE0FBECDBE5EC03A
:1010000080915101813A09F059C08091E800877FB1
:101010008093E8008091E80080FFFCCF80910A0176
:1010200044C080915101813209F048C08091E800AC
:10103000877F8093E8000E94F0019091530181E046
:10104000911101C080E080930A0138C08091510164
:101050008132A1F58091E800877F8093E8000E94AB
:10106000F00180915301909154018827E6E0969514
:101070008795EA95E1F790930E0180930D011EC0CC
:1010800080915101813AD1F48091E800877F80936B
:10109000E8008091E80080FFFCCF80910D019091E5
:1010A0000E0196958795969587958093F10080918E
:1010B000E8008E778093E8000E94F0018091E800BC
:1010C00083FFE8C18091510190915201492F50E076
:1010D0004A30510508F0DEC1FA01EB59FF4F0C947C
:1010E000451D803821F0823809F0D4C108C08091B4
:1010F000770190917801992389F082600FC08091E7
:1011000055018F70873008F0C5C18093E900809148
:10111000EB0085FB882780F91092E9009091E800A8
:10112000977F9093E8008093F1001092F1004FC1F7
:10113000282F2D7F09F0AEC1882319F0823061F08D
:10114000A9C180915301813009F0A4C1933009F005
:1011500080E0809378012EC08091530181112AC0D4
:10116000809155018F702FEF280F263008F092C123
:101170008093E9002091EB0020FF1CC0933021F404
:101180008091EB00806214C09091EB00906190938D
:10119000EB0021E030E0D90102C0AA0FBB1F8A9505
:1011A000E2F7A093EA001092EA008091EB008860D9
:1011B0008093EB001092E9008091E800877F0AC1DC
:1011C000811168C1809153018F77E82E8091E300EF
:1011D00080788E298093E3008091E800877F809358
:1011E000E8000E94F0018091E80080FFFCCF809130
:1011F000E30080688093E300E11002C082E001C058
:1012000083E080937A0146C18058823008F042C161
:1012100080915301909154018C3DB3E09B0779F587
:1012200083E08A838AE289834FB7F894DE011396BC
:1012300020E03EE051E2E32FF0E050935700E491CC
:1012400020FF03C0E295EF703F5FEF708E2F90E0BC
:10125000EA3010F0C79601C0C0968D939D932F5F22
:10126000243149F74FBF8091E800877F8093E800E1
:101270006AE270E0CE0101960E948D0196C0292F8E
:10128000332723303105D9F06CF42130310509F4CE
:1012900014C12230310509F0FDC082E290E0E4EA99
:1012A000F1E031C02132310509F40CC1223231059F
:1012B00009F0F0C080E290E0E4E8F1E024C0992772
:1012C0008130910571F08230910599F0892B09F0F8
:1012D000E1C0E0E2F2E0E4918E2F90E0E0E2F2E0A3
:1012E0000FC0E6E0F2E0E4918E2F90E0E6E0F2E05D
:1012F00007C0E8EDF1E0E4918E2F90E0E8EDF1E039
:10130000009709F4C7C02091E800277F2093E800E8
:1013100020915701309158012817390708F4C90165
:1013200040E0009789F120917A01222309F43DC021
:101330002530D9F12091E80023FD37C02091E80045
:1013400022FD2FC02091E80020FFEBCF4091F30059
:101350002091F20030E0342B009759F0283031050D
:1013600040F444914093F100319601972F5F3F4F35
:10137000F3CF41E02830310509F040E02091E8004A
:101380002E772093E800CDCF4111CDCF0AC08091B8
:101390007A01882351F0853041F08091E80083FD87
:1013A00004C08091E80082FFF2CF8091E8008B7743
:1013B0008093E8006FC0803809F06CC08091E8002D
:1013C000877F8093E800809179018093F10080917C
:1013D000E8008E778093E8000E94F0015BC08111E5
:1013E00059C090915301923008F054C08091E800A8
:1013F000877F8093E800909379010E94F0018091AB
:101400007901811106C08091E30087FD02C081E06F
:1014100001C084E080937A0187E0EAE0F1E0DF0137
:101420001D928A95E9F781E080930A0184EF91E0AB
:1014300090930E0180930D0183E0809305016091EC
:101440000201662311F190910601E0910301F091F0
:101450000401862F8F708730C0F4923010F442E080
:1014600001C046E028E030E090E02E173F0720F46E
:101470009F5F220F331FF9CF9295907F492B661FF4
:101480006627661F606C0E94E8058091E200846018
:101490008093E2008091E80083FF0AC08091E80019
:1014A000877F8093E8008091EB0080628093EB005F
:1014B0008F2D8F708093E9000AC082E190E0E6EC06
:1014C000F1E021CF89E090E0E6EBF1E01CCF0FB630
:1014D000F8941EBF0FBE0DBFAA960FB6F894DEBFDC
:1014E0000FBECDBFDF91CF911F910F91FF90EF9075
:1014F000DF90CF90BF90AF900895CF92DF92EF92A0
:10150000FF920F931F93CF93DF936C017A018B01AE
:10151000C0E0D0E0CE15DF0589F0D8016D918D01D6
:10152000D601ED91FC910190F081E02DC601099565
:10153000892B11F47E0102C02196ECCFC701DF9107
:10154000CF911F910F91FF90EF90DF90CF90089572
:1015500090E0FC013197EF30F105B0F5E159FF4F14
:101560000C94451D809180008F7703C0809180008E
:101570008F7D80938000089580918000877FF9CFD0
:1015800084B58F7702C084B58F7D84BD0895809126
:1015900090008F7707C0809190008F7D03C080916D
:1015A0009000877F8093900008958091C0008F778E
:1015B00003C08091C0008F7D8093C000089580910A
:1015C000C200877F8093C2000895823108F0825163
:1015D000E82FF0E0EB5DFD4FE49180917B00E3FBB1
:1015E000222720F930E095E0220F331F9A95E1F78A
:1015F0008F7D282B20937B00E770E064E0937C00D4
:1016000080917A00806480937A0080917A0086FDD0
:10161000FCCF809178002091790090E0922B089582
:101620000E947F1E1F920F920FB60F9211242F93CC
:101630003F938F939F93AF93BF93EF93FF938091CB
:10164000710190917201A0917301B0917401892B85
:101650008A2B8B2B51F180917001E0916E01F091FA
:101660006F0190818927808380917101909172012F
:10167000A0917301B0917401181619061A061B0681
:101680004CF58091710190917201A0917301B0911C
:1016900074010197A109B1098093710190937201BE
:1016A000A0937301B093740115C0809171008D7F78
:1016B0008093710090917001E0916E01F0916F0143
:1016C0008081282F30E0892F90E0809590958223AB
:1016D00093238083FF91EF91BF91AF919F918F9161
:1016E0003F912F910F900FBE0F901F901895CF93A1
:1016F000DF93282F30E0F901EF5CFD4F8491F90171
:10170000E756FD4FD491F901E658FD4FC491CC2323
:1017100091F081110E94A80AEC2FF0E0EE0FFF1F5C
:10172000E459FD4FA591B491EC91ED2381E090E057
:1017300021F480E002C080E090E0DF91CF91089535
:101740001F93CF93DF93282F30E0F901EF5CFD4F1B
:101750008491F901E756FD4FD491F901E658FD4F08
:10176000C491CC23C9F0162F81110E94A80AEC2F36
:10177000F0E0EE0FFF1FE25AFD4FA591B4918FB735
:10178000F894111105C09C91ED2FE095E92302C05A
:10179000EC91ED2BEC938FBFDF91CF911F910895CA
:1017A000CF93DF9390E0FC01E756FD4F2491FC01BD
:1017B000E658FD4F8491882361F190E0880F991FCE
:1017C000FC01E05BFD4FC591D491FC01E25AFD4F55
:1017D000A591B491611109C09FB7F89488812095B3
:1017E00082238883EC912E230BC0623061F49FB773
:1017F000F8943881822F809583238883EC912E2B57
:101800002C939FBF06C08FB7F894E8812E2B2883B6
:101810008FBFDF91CF91089585ED8093BC008091BB
:10182000BC0084FDFCCF10923D0208954091CB0195
:10183000262F30E0240F311D21323105DCF42091B8
:101840003D022430C9F4FC0180E090E0861758F492
:101850003091CB012191DC01A755BE4FA30FB11DE3
:101860002C930196F3CF8091CB01680F6093CB014D
:1018700080E0089581E0089582E008950895E09160
:10188000F6018091F501E81730F4F0E0E950FE4FE1
:10189000808190E008958FEF9FEF08959091F60179
:1018A0008091F501981750F4E92FF0E0E950FE4FD0
:1018B000208130E09F5F9093F60102C02FEF3FEF51
:1018C000C90108958091F50190E02091F601821BF5
:1018D00091090895CF92DF92EF92FF920F931F9399
:1018E000CF93DF937C01262F972F8A0180913E02B0
:1018F000882391F0C62FD72F6E01C40ED51ECC15AC
:10190000DD0571F06991D701ED91FC910190F081B5
:10191000E02DC7010995F3CF642F822F0E94160C8A
:10192000C801DF91CF911F910F91FF90EF90DF9051
:10193000CF900895CF93DF931F92CDB7DEB7698321
:1019400020913E022223D1F020916102203240F00A
:1019500021E030E0FC013383228380E090E015C079
:1019600080913F02E82FF0E0E05CFD4F9981908389
:101970008F5F80933F028093610205C061E0CE01DA
:1019800001960E94160C81E090E00F90DF91CF91BC
:1019900008950F931F93CF93DF938C01EB0188E29F
:1019A000FB0111928A95E9F74BE050E065E471E0A4
:1019B000CE010E94A11E1B8641E050E060E070E075
:1019C0004C875D876E877F87F80185899689A7890F
:1019D000B08D888B998BAA8BBB8B4C8B5D8B6E8B60
:1019E0007F8B1CA21DA21EA21FA2188E198E1A8EFA
:1019F0001B8E1C8E1D8E1E8E1F8E18A219A21AA25F
:101A00001BA2DF91CF911F910F9108953FB7F894DA
:101A10008091F1019091F201A091F301B091F40154
:101A200026B5A89B05C02F3F19F00196A11DB11D39
:101A30003FBFBA2FA92F982F8827820F911DA11D74
:101A4000B11DBC01CD0143E0660F771F881F991FB0
:101A50004A95D1F708951F920F920FB60F92112455
:101A60002F933F938F939F93AF93BF9380916E0279
:101A700090916F02A0917002B09171023091F001CB
:101A800026E0230F2D3720F40296A11DB11D05C0BD
:101A900029E8230F0396A11DB11D2093F001809327
:101AA0006E0290936F02A0937002B09371028091C6
:101AB000F1019091F201A091F301B091F40101962E
:101AC000A11DB11D8093F1019093F201A093F30148
:101AD000B093F401BF91AF919F918F913F912F915E
:101AE0000F900FBE0F901F9018951F920F920FB678
:101AF0000F9211242F933F934F935F936F937F9394
:101B00008F939F93AF93BF93EF93FF938091B9000F
:101B1000887F803609F49CC068F5883209F45BC080
:101B200090F4803109F454C038F4882309F4F6C0E5
:101B3000883009F44DC0F6C0883109F44CC08032B9
:101B400009F45DC0EFC0803409F468C048F4803304
:101B500009F455C0883309F0E5C080933B02D8C032
:101B6000803509F44FC0883509F45DC0883409F028
:101B7000D9C0D6C0883909F4C7C0A8F4883709F499
:101B800067C038F4883609F463C0803709F460C050
:101B9000C9C0883809F4B8C0803909F45FC08038FA
:101BA00009F0C0C05BC0803B09F486C038F4803ABD
:101BB00009F466C0883A09F47FC0B4C0803C09F4D7
:101BC000A7C0883C09F4A4C0883B09F48AC0AAC015
:101BD0008091180210C090913A02809139029817B2
:101BE00070F5E0913A0281E08E0F80933A02F0E0C6
:101BF000E75EFD4F80818093BB0085EC86C08093BB
:101C00003B028EC0E0913A0281E08E0F80933A024F
:101C10008091BB00F0E0E75EFD4F808390913A0237
:101C2000809139026EC0E0913A0281E08E0F80937C
:101C30003A028091BB00F0E0E75EFD4F8083809127
:101C40003C0281116DC081E08093170284EA61C07B
:101C500083E080933D021092EF01CFCF8091EF019E
:101C6000803208F051C0E091EF0181E08E0F809347
:101C7000EF018091BB00F0E0E153FE4F8083BDCFC8
:101C800085EC8093BC0010923D028091EF01803280
:101C900030F4E091EF01F0E0E153FE4F10826091EB
:101CA000EF0170E0E091CD01F091CE018FEC91E079
:101CB00009951092EF0136C084E080933D021092A6
:101CC000CC011092CB01E091C901F091CA010995B4
:101CD0008091CB01811105C081E08093CB011092EE
:101CE000A901E091CC0181E08E0F8093CC01F0E05E
:101CF000E755FE4F80818093BB009091CC0180918D
:101D0000CB01981708F479CF85E88093BC000AC00E
:101D100085EC8093BC0010923D0204C010923B02FF
:101D20000E940C0CFF91EF91BF91AF919F918F9109
:101D30007F916F915F914F913F912F910F900FBEC7
:101D40000F901F901895CF93DF93EC0188859985AC
:101D5000009711F00E94E71D8E8187FD05C060E0AD
:101D6000DF91CF910C94D00BDF91CF910895CF925A
:101D7000DF92EF92FF920F931F93CF93DF93FC01BB
:101D8000258D2F3F39F46EBD00000DB407FEFDCF49
:101D90008EB52BC0D62F8C0187E0E82EF12CC0E049
:101DA000CC24C394D12CCC0F60E0F801858D0E9427
:101DB000A00BB6010E2C01C0660F0A94EAF76D2342
:101DC000F801838D0E94A00B61E0F801858D0E94CF
:101DD000A00BF801848D0E94770B892B09F0C1605C
:101DE000F1E0EF1AF108F8F68C2FDF91CF911F91F7
:101DF0000F91FF90EF90DF90CF9008951F93CF93B6
:101E0000DF93EC01162F8A8D8F3FF9F4898D91E0D5
:101E100090933E028093600210923F021092610202
:101E200082E692E00E949A0C81E00E94AD10898DBA
:101E300061E070E0082E000C990B0E94541182E6BC
:101E400092E00E944E0C182F1EC08D8D8F3F21F402
:101E500081E590E00E94B20560E08A8D0E94A00BAF
:101E6000612F6068CE010E94B70E60E0CE010E9433
:101E7000B70E182F61E08A8D0E94A00B8D8D8F3FC9
:101E800011F40E94B105812FDF91CF911F91089528
:101E90008F929F92AF92BF92CF92DF92EF92FF927A
:101EA0000F931F93CF93DF93EC018B0184E2FB012F
:101EB00011928A95E9F784E290E0A0E0B0E0FB019E
:101EC00080839183A283B3838D899E89AF89B88DE6
:101ED00084839583A683B78381E090E0A0E0B0E09F
:101EE00080879187A287B387108A118A128A138A02
:101EF0008A8D8F3F09F054C0898D91E090933E0206
:101F00008093600210923F021092610268EA82E6BA
:101F100092E00E949A0C81E00E94AD10898D66E0EB
:101F200070E0082E000C990B0E94541182E692E09A
:101F30000E944E0C9C838B8382E692E00E944E0CA2
:101F400020E030E0382F8B819C81282B392B3C837B
:101F50002B8382E692E00E944E0C9E838D8382E664
:101F600092E00E944E0C20E030E0382F8D819E815F
:101F7000282B392B3E832D8382E692E00E944E0C63
:101F800098878F8382E692E00E944E0C20E030E03A
:101F9000382F8F819885282B392B38872F8348C07D
:101FA0008D8D8F3F21F481E590E00E94B20560E0C5
:101FB0008A8D0E94A00B68EECE010E94B70E6FEFD3
:101FC000CE010E94B70E90E09C838B836FEFCE0111
:101FD0000E94B70E2B813C81382B3C832B836FEF03
:101FE000CE010E94B70E90E09E838D836FEFCE01ED
:101FF0000E94B70E2D813E81382B3E832D836FEFDB
:10200000CE010E94B70E90E098878F836FEFCE01CC
:102010000E94B70E2F813885382B38872F8361E0D7
:102020008A8D0E94A00B8D8D8F3F11F40E94B10507
:1020300063E2CE010E94FE0E90E024E09595879524
:102040002A95E1F7837099278330910599F08230C2
:10205000910551F08130910551F061E070E0892BDC
:1020600059F46CEF7FE308C060E070E105C06EEFEB
:102070007FE102C065E575E080E090E00E94581BBA
:102080006B017C016B817C81072E000C880B990B06
:102090000E945A1BA70196010E94B01A4B015C01D5
:1020A00069877A878B879C876D817E81072E000CDC
:1020B000880B990B0E945A1BA70196010E94B01A27
:1020C0006D877E878F87988B6F817885072E000CB0
:1020D000880B990B0E945A1BA70196010E94B01A07
:1020E000698B7A8B8B8B9C8B2AE038EE4CE151E428
:1020F000C501B4010E94651CF801648B758B868B49
:10210000978B2AE038EE4CE151E46D857E858F8512
:1021100098890E94651CF801608F718F828F938F60
:102120002AE038EE4CE151E469897A898B899C89EF
:102130000E94651CF801648F758F868F978F80E0F1
:10214000DF91CF911F910F91FF90EF90DF90CF9093
:10215000BF90AF909F908F900895382F209161028B
:1021600090916002213208F049C080913D028111B6
:10217000FCCF42E040933D0230933C023FEF30936E
:102180003B0210923A0220933902A0E4B2E049E106
:1021900052E0FA013E2F341B321718F43D9131936F
:1021A000F9CF1092180220911802990F922B909358
:1021B000180290911702913061F4109217029091D9
:1021C00018029093BB009091BC0093FDF8CF95EC62
:1021D00001C095EE9093BC0090913D029230E1F3E6
:1021E00090913B029F3F79F080913B02803241F019
:1021F00080913B02803331F084E005C081E003C070
:1022000082E001C083E010923F02109261021092BE
:102210003E020895CF93DF93C82FD62F8091A1025D
:102220008F3FD1F48091A00291E090933E02809381
:10223000600210923F02109261026C2F82E692E0DF
:102240000E949A0C6D2F82E692E00E949A0C81E027
:10225000DF91CF910C94AD108091A4028F3F21F4B7
:1022600081E590E00E94B20560E08091A1020E94A9
:10227000A00B6C2F6F7787E892E00E94B70E6D2F4E
:1022800087E892E00E94B70E61E08091A1020E946F
:10229000A00B8091A4028F3F21F4DF91CF910C9489
:1022A000B105DF91CF91089590913D029111FCCF3E
:1022B000613208F060E291E090933D0290933C021D
:1022C0002FEF20933B0210923A02260F20933902FF
:1022D0009093180290911802880F892B809318020E
:1022E00080911702813061F41092170280911802D8
:1022F0008093BB008091BC0083FDF8CF85EC01C0CA
:1023000085EE8093BC0080913D028130E1F38091A5
:102310003A02861710F460913A02A9E1B2E027EF81
:1023200031E0F9018E2F821B861718F48D9181936D
:10233000F9CF1092F6016093F501862F08950F935F
:102340001F93CF93DF93CDB7DEB729970FB6F894DD
:10235000DEBF0FBECDBF80917A0290917B02892BA8
:1023600009F4C1C00E94060D009180021091810203
:102370002091820230918302DC01CB01801B910B02
:10238000A20BB30BC297A105B10560F3F89480913D
:102390007602909177029A838983E0917A02F09194
:1023A0007B02DF0111968081898790917202809172
:1023B0008602992309F45AC01B8295B1982B9887FD
:1023C00095B1809589238F838F818C83898587FF41
:1023D00002C088858C8358856F8149853C812B811B
:1023E00089819A8155B9262F35B900C046FD252F20
:1023F00065B900C055B9362F25B900C045FD352F48
:1024000065B900C055B9262F35B900C044FD252F48
:1024100065B900C055B9362F25B900C043FD352F29
:1024200065B900C055B9262F35B900C042FD252F2A
:1024300065B900C055B9362F25B900C041FD352F0B
:1024400065B900C055B9262F35B900C040FD252F0C
:1024500065B9019755B9362F25B94D9147FD352FEF
:1024600065B901F649873C832B8330C0E091840233
:10247000F09185029081982B98879081809589238F
:102480008F838F818E8388E08D8358856F81498506
:102490003D812E8189819A81508347FD252F20839C
:1024A000262F3A9531F0441F608300C000C000C061
:1024B000F3CF6083000038E04D91019769F7F09306
:1024C0008502E093840249873D832E839A83898322
:1024D00078940E94060D609380027093810280932D
:1024E00082029093830229960FB6F894DEBF0FBE46
:1024F000CDBFDF91CF911F910F9108950F931F933F
:10250000CF93DF938C0180917A0290917B020097A8
:1025100011F00E94E71D90917F0280917C02981734
:1025200019F084E090E002C083E090E0809FE00139
:10253000819FD00D909FD00D1124D0937702C0932E
:102540007602CE010E94521D90937B0280937A0204
:10255000009751F0AE0160E070E00E949A1E109367
:1025600075020093740208C01092770210927602EE
:102570001092750210927402DF91CF911F910F910A
:102580000895DC0190917902992361F0699FB0016F
:102590001124672F499FA0011124452F299F9001E5
:1025A0001124232F30917F0280917C02E0917A02E6
:1025B000F0917B02381308C0CD01880F991F8A0F54
:1025C0009B1F8E0F9F1F0BC0CD01880F991F880F77
:1025D000991F8E0F9F1FFC01E30FF11D1082309198
:1025E0007C02FC01E30FF11D608330917D02FC0150
:1025F000E30FF11D408330917E02FC01E30FF11DDA
:1026000020830895CF93DF93CDB7DEB7AD970FB694
:10261000F894DEBF0FBECDBF789484B5826084BDD0
:1026200084B5816084BD85B5826085BD85B58160D6
:1026300085BD80916E00816080936E001092810054
:10264000809181008260809381008091810081600F
:1026500080938100809180008160809380008091D0
:1026600091008260809391008091910081608093BD
:102670009100809190008160809390008091C100D2
:1026800084608093C1008091C10082608093C1000A
:102690008091C10081608093C1008091C3008160FE
:1026A0008093C3008091C00082608093C0008091BD
:1026B000C20081608093C20080917A008460809320
:1026C0007A0080917A00826080937A0080917A000B
:1026D0008E7F80937A0080917A00806880937A0060
:1026E0008AE0EBE9F1E0DF011D928A95E9F761E00C
:1026F00085E00E94D00B62E084E00E94D00B62E093
:1027000083E10E94D00B62E085E10E94D00B60E083
:1027100087E10E94D00B60E082E10E94D00B8B81A8
:10272000809389028C819D8190938B0280938A0291
:102730008E819F8190938D0280938C0288859985EC
:1027400090938F0280938E028A859B85AC85BD8590
:102750008093900290939102A0939202B09393027F
:102760008E859F85A889B98980939402909395025C
:10277000A0939602B09397028A899B89AC89BD8900
:102780008093980290939902A0939A02B0939B022F
:102790008FEF9FEFDC0180939C0290939D02A093AA
:1027A0009E02B0939F0288E08093A1028FEF8093F6
:1027B000A2028093A3028093A40288E18093A002E6
:1027C00061E088E00E94A00B61E08091A1020E947C
:1027D000D00B8091A4028F3F09F034C01FB7F8944A
:1027E00080918701811127C0EBE8F2E08491EAEA49
:1027F000F2E09491E82FF0E0EE0FFF1FE05BFD4F59
:10280000A591B491EC91E92321F461E081E10E946A
:10281000A00B61E081E10E94D00B8CB580618CBD82
:102820008CB580648CBD61E08FE00E94D00B61E0CC
:1028300080E10E94D00B809187018F5F8093870198
:102840001FBF0DC061E00E94D00B61E08091A20229
:102850000E94D00B60E08091A3020E94D00B6FE039
:1028600087E892E00E94FE0E8333D9F467E080E2AD
:102870000E940A1160E287E892E00E94FE0E8F70CB
:10288000682F606780E20E940A1168E883E20E9474
:102890000A1160E182E20E940A1160E88FE10E9461
:1028A0000A1163E287E892E00E94FE0E682F6F7CB7
:1028B00083E20E940A1111E019831A821C821B8292
:1028C0001E821D828FEF8F8318861A8619861B87BA
:1028D0001C8602E00D871E871F86188A198A1A8AAD
:1028E00085E1FE013196A2E7B2E001900D928A9552
:1028F000E1F7CE0101960E94A30E90917F02809194
:102900007C0210937F0210937C0210927D02009350
:102910007E021093720220917A0230917B02232B67
:1029200041F0981731F080917402909175020E94E5
:102930007E128AE090E00E947E12809173028823CA
:1029400039F08091780287FD03C060E00E94D00BCF
:1029500081E18093780280917302882341F061E0E5
:1029600081E10E94D00B60E081E10E94A00BEBE8C6
:10297000F2E0E491F0E0EE0FFF1FE25AFD4F859187
:1029800094919093850280938402EAEAF2E0E491C4
:10299000E09386028091780287FD08C061E00E9482
:1029A000D00B60E0809178020E94A00B81E08093C0
:1029B0007302409176025091770260E070E080915E
:1029C0007A0290917B020E949A1E0E949F11609150
:1029D00079026F3121F120917A0230917B026150AE
:1029E00031F070E08FEF9EE10E94311D02C060E087
:1029F00070E0F9014091760250917702CF01821B7D
:102A0000930B8417950740F44081469FC001479F70
:102A1000900D11249193EECF8FE18093790281E1A3
:102A200092E0909376018093750184B7877F84BF8D
:102A30000FB6F894A895809160008861809360003B
:102A4000109260000FBE8091D8008F7E8093D800D6
:102A50008091D70081608093D70084E082BF81E0BD
:102A6000809388018091D8008E7F8093D800109247
:102A7000E2001092DA001092E1008091D8008F7786
:102A80008093D8008091D80080688093D80080918E
:102A9000D8008F7D8093D80019BC10927A011092D3
:102AA000790110927801109277018091E0008B7F7C
:102AB0008093E0008091D80081608093D80042E04C
:102AC00060E080E00E94E8058091E1008E7F8093C5
:102AD000E1008091E20081608093E2008091E20059
:102AE00088608093E2008091E0008E7F8093E00018
:102AF0008091D80080618093D800789480E0282E5F
:102B000080E0382E0E94060D0091A5011091A601CB
:102B10002091A7013091A801DC01CB01801B910B12
:102B2000A20BB30BB7FD91C20E94060DDC01CB01D5
:102B3000805F984DAF4FBF4F8093A5019093A60142
:102B4000A093A701B093A80184E00E94770B209185
:102B50009B01892B11F0216001C02E7F20939B01E6
:102B600083E10E94770B20919B01892B11F0226059
:102B700001C02D7F20939B0185E10E94770B20915E
:102B80009B01892B11F0246001C02B7F20939B01B6
:102B900087E10E94E50ABC01990F880B990B0E94FE
:102BA0005A1B2DEC3CEC4CEC5DE30E94651C6B0168
:102BB0007C016091990170919A01072E000C880B9D
:102BC000990B0E945A1B26E636E646E65FE30E9412
:102BD000651C9B01AC01C701B6010E94D2190E947D
:102BE000221B70939A0160939901DB0124E630E087
:102BF0000E944B1D2FEF33E040E050E00E9481190E
:102C000020939C0182E10E94E50ABC01990F880B88
:102C1000990B0E945A1B9B01AC0160EF78E18CE19B
:102C20009BE40E94B01A20E030E44CE156E40E949C
:102C3000D11920E030E44CE156E40E94B01A0E9421
:102C40001D1C20E030E443E555E40E94B01A2FE05B
:102C50003FEC4BE55BE30E94D2199B01AC0160E0C5
:102C600070E080E89FE30E94B01A23E333E948E86C
:102C700053E40E94D1192DEC3CEC4CEC5DE30E9436
:102C8000651C6B017C0126E636E646E65FE3609153
:102C900095017091960180919701909198010E9401
:102CA000651C9B01AC01C701B6010E94D21960935B
:102CB000950170939601809397019093980120E07D
:102CC00030E048EC52E40E94651C0E94221B709385
:102CD0009D0160939E01BE016F5F7F4F87E892E088
:102CE0000E94480F2DEC3CEC4CEC5DE36D897E8935
:102CF0008F89988D0E94651C6B017C0126E636E663
:102D000046E65FE360919101709192018091930199
:102D1000909194010E94651C9B01AC01C701B60112
:102D20000E94D2194B015C01609391017093920152
:102D300080939301909394012DEC3CEC4CEC5DE37B
:102D4000698D7A8D8B8D9C8D0E94651C6B017C0139
:102D500026E636E646E65FE360918D0170918E01CE
:102D600080918F01909190010E94651C9B01AC01A4
:102D7000C701B6010E94D2196B017C0160938D01DD
:102D800070938E0180938F01909390012DEC3CEC19
:102D90004CEC5DE36D8D7E8D8F8D98A10E94651C3E
:102DA0002B013C0126E636E646E65FE360918901A9
:102DB00070918A0180918B0190918C010E94651C19
:102DC0009B01AC01C301B2010E94D2192B013C014D
:102DD0006093890170938A0180938B0190938C0199
:102DE000A7019601C701B6010E94651C6DA37EA3D1
:102DF0008FA398A7A3019201C301B2010E94651C91
:102E000069A77AA78BA79CA7A5019401C501B40166
:102E10000E94651C2DA13EA14FA158A50E94D21968
:102E200029A53AA54BA55CA50E94D2190E94D81CE1
:102E300020E034E244E759E40E94651C0E94291B0B
:102E40006DA7172F092FC701B6019058A301920152
:102E50000E94511A6B017C0129A53AA54BA55CA5DE
:102E60006DA17EA18FA198A50E94D2190E94D81CA5
:102E70009B01AC01C501B4010E94511A4B015C01D8
:102E800020E030E044E353E4C701B6010E94651C32
:102E90002BED3FE049E450E40E94B01A0E94221B4F
:102EA00060939F0120E030E044E353E4C501B401A6
:102EB0000E94651C2BED3FE049E450E40E94B01AEB
:102EC0000E94221B6093A0010093A1011093A30113
:102ED000BDA5B093A4011092A201EBE9F1E0F0933B
:102EE0007C01E0937B0180917A01843009F0ABC0D2
:102EF0008091E4009091E50020910B0130910C014C
:102F00002817390709F49FC0809102018F708093C0
:102F1000E9008091E80085FF96C08DB69EB640918D
:102F2000090150E08DB79EB7841B950B0FB6F8943E
:102F30009EBF0FBE8DBF0DB71EB70F5F1F4F58014D
:102F400060E070E0C8010E949A1ED80180E090E025
:102F5000E0917B01F0917C01E80FF91F20812D9316
:102F600001968A309105A1F780910D0190910E0193
:102F7000892B61F091E080E020910F0130911001E8
:102F8000232B09F090E0E92EF82E02C0E12CF12C61
:102F9000C0900701D0900801C114D10419F4EF28A2
:102FA00089F444C04AE050E0B601C8010E94841E82
:102FB0003C014091090150E0B801C6010E94911EF8
:102FC000672869F380910D0190910E019093100193
:102FD00080930F01809102018F708093E9000E941D
:102FE000B605882331F08091E8008E778093E80061
:102FF0001DC00AE010E08091E80085FD0CC08091C2
:10300000E8008E778093E8000E94E6060E94B605ED
:10301000882341F0E8CFD5018D915D018093F100C7
:10302000015011090115110531F7DDCF8091E40040
:103030009091E50090930C0180930B010FB6F894EA
:103040009EBE0FBE8DBE0E94E6062114310409F417
:1030500059CD0E94000056CD82E792E00E94A30E57
:1030600085EA92E00C94A30E2F923F924F925F92CA
:103070006F927F928F929F92AF92BF92CF92DF9288
:10308000EF92FF920F931F93CF93DF9300D000D066
:10309000CDB7DEB7109265021092640288EE93E01D
:1030A000A0E0B0E08093660290936702A09368026C
:1030B000B09369028BE191E0909363028093620286
:1030C00091E09093A5021092A6021092A80210928D
:1030D000A7021092AA021092A9028FEF8093AB026E
:1030E0001092AC021092AE021092AD029093AF0219
:1030F0001092B00222E02093B1029093B20210929B
:10310000B3021092B4021092B5021092B6022BE3F1
:1031100031E03093BB022093BA024FEF5FEFBA0168
:103120004093CF025093D0026093D1027093D202A9
:103130008093D4028093D5028093D6028093D702E5
:103140001092D9028AED92E09C838B8300E010E01C
:1031500022242394312C4CE251E060EE462E63E9A8
:10316000562E64E0662E712C70E2872E7EE4972E38
:10317000A12CB12CCC24CA94DC2CEC2CEFE0FE2E3C
:10318000EB81FC81318220825783468340865186C1
:103190006286738684869586A686B78661E080E01F
:1031A00049835A830E94D00B60E080E00E94D00BDC
:1031B00060E080E00E94A00BE9E9F2E02491C80100
:1031C0008B559D4FFC01E35BFF4F2083EAE7F2E064
:1031D0002491E22FF0E0EE0FFF1FE459FD4F2591FF
:1031E0003491EB81FC81328F218FE9E9F2E0249167
:1031F000FC01E05BFF4F2083EAE7F2E08491E82FD7
:10320000F0E0EE0FFF1FE459FD4F85919491EB81A3
:10321000FC81958F848FC282D382E482F5822FB79E
:10322000F89480916E0290916F02A0917002B0911B
:1032300071022FBFEB81FC81808B918BA28BB38BB2
:103240007E96FC83EB83025E1F4F49815A81003FCB
:10325000110509F095CF8BE391E09093880280935C
:1032600087028FEF9FEFDC0180939C0290939D0279
:10327000A0939E02B0939F028093A1028093A2022A
:103280008093A3028093A40291E090937202109223
:1032900073021092750210927402109277021092CB
:1032A0007602809378021092790210927B0210923B
:1032B0007A0290937C0210927D0282E080937E02DB
:1032C00090937F02109280021092810210928202EB
:1032D000109283020F900F900F900F90DF91CF917B
:1032E0001F910F91FF90EF90DF90CF90BF90AF9024
:1032F0009F908F907F906F905F904F903F902F9016
:103300000895052E97FB1EF400940E94981957FD0E
:1033100007D00E94A01907FC03D04EF40C94981912
:1033200050954095309521953F4F4F4F5F4F0895F1
:1033300090958095709561957F4F8F4F9F4F089521
:10334000A1E21A2EAA1BBB1BFD010DC0AA1FBB1FA9
:10335000EE1FFF1FA217B307E407F50720F0A21B1B
:10336000B30BE40BF50B661F771F881F991F1A9488
:1033700069F760957095809590959B01AC01BD01B2
:10338000CF010895A29FB001B39FC001A39F700D0C
:10339000811D1124911DB29F700D811D1124911D5D
:1033A00008955058BB27AA270E94E9190C94D31BF3
:1033B0000E94C51B38F00E94CC1B20F039F49F3FBF
:1033C00019F426F40C949B1B0EF4E095E7FB0C9487
:1033D000951BE92F0E94E41B58F3BA176207730785
:1033E0008407950720F079F4A6F50C94061C0EF4DA
:1033F000E0950B2EBA2FA02D0B01B90190010C0105
:10340000CA01A0011124FF27591B99F0593F50F41C
:10341000503E68F11A16F040A22F232F342F442774
:10342000585FF3CF469537952795A795F04053956C
:10343000C9F77EF41F16BA0B620B730B840BBAF03C
:103440009150A1F0FF0FBB1F661F771F881FC2F7A7
:103450000EC0BA0F621F731F841F48F487957795BB
:103460006795B795F7959E3F08F0B0CF9395880F75
:1034700008F09927EE0F9795879508950E94C51B30
:1034800060F080E891E009F49EEF0E94CC1B28F0E8
:1034900040E851E071F45EEF0CC00C949B1B0C945F
:1034A000061CE92FE0780E94E41B40F3092E052A50
:1034B000B1F3261737074807590738F00E2E07F8DB
:1034C000E02569F0E025E0640AC0EF6307F80094A6
:1034D00007FADB01B9019D01DC01CA01AD01EF93DF
:1034E0000E94C71A0E94D31B0E94811A5F91552324
:1034F00039F02BED3FE049E450FD49EC0C94D21932
:103500000895DF93DD27B92FBF7740E85FE31616F4
:10351000170648075B0718F4D92F0E940D1C9F93CC
:103520008F937F936F930E94181DECEFF0E00E9441
:103530009E1B0E94D31B2F913F914F915F910E9440
:10354000781CDD2351F09058A2EA2AED3FE049ECC7
:103550005FE3D0785D270E94E919DF910C94D31BBB
:103560000E94C41A0C94D31B0E94CC1B58F00E94DA
:10357000C51B40F029F45F3F29F00C94951B5111B5
:103580000C94071C0C949B1B0E94E41B68F399236A
:10359000B1F3552391F3951B550BBB27AA2762174F
:1035A0007307840738F09F5F5F4F220F331F441F5C
:1035B000AA1FA9F335D00E2E3AF0E0E832D0915090
:1035C0005040E695001CCAF72BD0FE2F29D0660F7D
:1035D000771F881FBB1F261737074807AB07B0E8C0
:1035E00009F0BB0B802DBF01FF2793585F4F3AF0C6
:1035F0009E3F510578F00C94951B0C94071C5F3F7F
:10360000E4F3983ED4F3869577956795B795F7954B
:103610009F5FC9F7880F911D9695879597F9089533
:10362000E1E0660F771F881FBB1F621773078407CF
:10363000BA0720F0621B730B840BBA0BEE1F88F7DE
:10364000E09508950E94291B6894B1110C94071C01
:1036500008950E94EC1B88F09F5798F0B92F992786
:10366000B751B0F0E1F0660F771F881F991F1AF06D
:10367000BA95C9F714C0B13091F00E94061CB1E0B0
:1036800008950C94061C672F782F8827B85F39F0AF
:10369000B93FCCF3869577956795B395D9F73EF406
:1036A00090958095709561957F4F8F4F9F4F0895AE
:1036B000E89409C097FB3EF49095809570956195CC
:1036C0007F4F8F4F9F4F9923A9F0F92F96E9BB2782
:1036D0009395F695879577956795B795F111F8CFFE
:1036E000FAF4BB0F11F460FF1BC06F5F7F4F8F4F69
:1036F0009F4F16C0882311F096E911C0772321F05F
:103700009EE8872F762F05C0662371F096E8862FF6
:1037100070E060E02AF09A95660F771F881FDAF74D
:10372000880F9695879597F9089597F99F6780E890
:1037300070E060E008959FEF80EC0895DF93CF93F1
:103740001F930F93FF92EF92DF927B018C0168949D
:1037500006C0DA2EEF010E94781CFE01E894A591C4
:103760002591359145915591A6F3EF010E94E919F4
:10377000FE019701A801DA9469F7DF90EF90FF90BE
:103780000F911F91CF91DF91089500240A9416168E
:10379000170618060906089500240A94121613063F
:1037A000140605060895092E0394000C11F48823CD
:1037B00052F0BB0F40F4BF2B11F460FF04C06F5FE9
:1037C0007F4F8F4F9F4F089557FD9058440F551FBF
:1037D00059F05F3F71F04795880F97FB991F61F093
:1037E0009F3F79F087950895121613061406551F0A
:1037F000F2CF4695F1DF08C0161617061806991F76
:10380000F1CF86957105610508940895E894BB276A
:1038100066277727CB0197F908959B01AC0160E0FB
:1038200070E080E89FE30C94B01A16F00C941C1D15
:103830000C949B1B68940C94951B0E94EC1BA8F3A2
:103840009923C1F3AEF3DF93CF931F930F93FF92AE
:10385000C92FDD2788232AF02197660F771F881F3D
:10386000DAF720E030E040E85FEB9FE3883920F0B2
:10387000803E38F021968F770E94D219E9E2F1E07C
:1038800004C00E94D219E6E5F1E00E949E1B8B0164
:10389000BE01EC01FB2E6F5771097595771F880BE0
:1038A000990B0E945A1B28E132E741E35FE30E9433
:1038B000781CAF2D9801AE01FF900F911F91CF9111
:1038C000DF910E94E9190C94D31B0E94781C0C9480
:1038D000D31B0E94C51B38F00E94CC1B20F09523FF
:1038E00011F00C94951B0C949B1B11240C94071C39
:1038F0000E94E41B70F3959FC1F3950F50E0551F94
:10390000629FF001729FBB27F00DB11D639FAA2734
:10391000F00DB11DAA1F649F6627B00DA11D661F83
:10392000829F2227B00DA11D621F739FB00DA11DA4
:10393000621F839FA00D611D221F749F3327A00D5E
:10394000611D231F849F600D211D822F762F6A2FFA
:1039500011249F5750409AF0F1F088234AF0EE0F5F
:10396000FF1FBB1F661F771F881F91505040A9F78C
:103970009E3F510580F00C94951B0C94071C5F3FF3
:10398000E4F3983ED4F3869577956795B795F795C8
:10399000E7959F5FC1F7FE2B880F911D9695879540
:1039A00097F9089519F416F40C949B1B0C941C1DA4
:1039B0000E94EC1BB8F39923C9F3B6F39F57550B3C
:1039C00087FF0E942A1D0024A0E640EA900180584B
:1039D0005695979528F4805C660F771F881F20F016
:1039E00026173707480730F4621B730B840B202916
:1039F00031294A2BA69517940794202531254A276B
:103A000058F7660F771F881F20F0261737074807DB
:103A100030F4620B730B840B200D311D411DA095FA
:103A200081F7B901842F9158880F9695879508954D
:103A30009B01AC010C94651C9F3F31F0915020F428
:103A4000879577956795B795880F911D969587957A
:103A500097F9089591505040660F771F881FD2F74D
:103A60000895AA1BBB1B51E107C0AA1FBB1FA617C5
:103A7000B70710F0A61BB70B881F991F5A95A9F717
:103A800080959095BC01CD010895EE0FFF1F059024
:103A9000F491E02D09940E94C219B7FF0895821B8A
:103AA000930B0895CF93DF938230910510F482E059
:103AB00090E0E091CC03F091CD0320E030E0C0E055
:103AC000D0E0309711F14081518148175907C0F07B
:103AD0004817590761F482819381209719F09B83DD
:103AE0008A832BC09093CD038093CC0326C02115ED
:103AF000310519F04217530718F49A01BE01DF018E
:103B0000EF010280F381E02DDCCF2115310509F1B1
:103B1000281B390B2430310590F412968D919C911D
:103B200013976115710521F0FB019383828304C013
:103B30009093CD038093CC03FD01329644C0FD01E8
:103B4000E20FF31F81939193225031092D933C93FF
:103B50003AC02091CA033091CB03232B41F420912A
:103B60001301309114013093CB032093CA032091A9
:103B70001101309112012115310541F42DB73EB7E5
:103B80004091150150911601241B350BE091CA0399
:103B9000F091CB03E217F307A0F42E1B3F0B28177D
:103BA000390778F0AC014E5F5F4F2417350748F0B6
:103BB0004E0F5F1F5093CB034093CA0381939193A1
:103BC00002C0E0E0F0E0CF01DF91CF9108950F93C4
:103BD0001F93CF93DF93009709F48CC0FC013297B9
:103BE000138212820091CC031091CD0301151105AF
:103BF00081F420813181820F931F2091CA0330917B
:103C0000CB032817390779F5F093CB03E093CA0368
:103C100071C0D80140E050E0AE17BF0750F41296D3
:103C20002D913C911397AD012115310509F1D90171
:103C3000F3CF9D01DA013383228360817181860F86
:103C4000971F8217930769F4EC0128813981260FA9
:103C5000371F2E5F3F4F318320838A819B8193835F
:103C60008283452B29F4F093CD03E093CC0342C02B
:103C70001396FC93EE931297ED01499159919E0191
:103C8000240F351FE217F30771F480819181840FAF
:103C9000951F029611969C938E9382819381139621
:103CA0009C938E931297E0E0F0E0D80112968D91EC
:103CB0009C911397009719F0F8018C01F6CF8D9124
:103CC0009C9198012E5F3F4F820F931F2091CA0352
:103CD0003091CB032817390769F4309729F41092F3
:103CE000CD031092CC0302C0138212821093CB0337
:103CF0000093CA03DF91CF911F910F91089581E046
:103D000090E0F8940C94B01EFB01DC0104C08D918E
:103D10000190801921F441505040C8F7881B990B3D
:103D20000895FB01DC0102C001900D92415050400A
:103D3000D8F70895DC0101C06D9341505040E0F781
:103D40000895FB01DC014150504048F001900D9274
:103D50000020C9F701C01D9241505040E0F708957E
:103D600011E0CDE5D1E004C0FE010E94451D219681
:0A3D7000CE35D107C9F7F894FFCF54
:103D7A00FF0081080000017D010A00000000000028
:103D8A00000000CE038000000000009A0C6A0C8933
:103D9A00013E0C620C4E0C3F0C00000000000000BB
:103DAA00008C01100B100B00000000B5050F028CEF
:0C3DBA0001480FC90C4C49533344480029
:00000001FF
